{
  "contractName": "CBAuth",
  "abi": [
    {
      "inputs": [
        {
          "internalType": "address",
          "name": "daiAddress",
          "type": "address"
        },
        {
          "internalType": "address",
          "name": "ethUsdOracle",
          "type": "address"
        },
        {
          "internalType": "uint256",
          "name": "initSubscriptionPrice",
          "type": "uint256"
        }
      ],
      "stateMutability": "nonpayable",
      "type": "constructor"
    },
    {
      "anonymous": false,
      "inputs": [
        {
          "indexed": true,
          "internalType": "address",
          "name": "previousOwner",
          "type": "address"
        },
        {
          "indexed": true,
          "internalType": "address",
          "name": "newOwner",
          "type": "address"
        }
      ],
      "name": "OwnershipTransferred",
      "type": "event"
    },
    {
      "anonymous": false,
      "inputs": [
        {
          "indexed": false,
          "internalType": "address",
          "name": "subscriber",
          "type": "address"
        }
      ],
      "name": "Refunded",
      "type": "event"
    },
    {
      "anonymous": false,
      "inputs": [
        {
          "indexed": false,
          "internalType": "address",
          "name": "subscriber",
          "type": "address"
        }
      ],
      "name": "Subscribed",
      "type": "event"
    },
    {
      "inputs": [],
      "name": "owner",
      "outputs": [
        {
          "internalType": "address",
          "name": "",
          "type": "address"
        }
      ],
      "stateMutability": "view",
      "type": "function",
      "constant": true
    },
    {
      "inputs": [],
      "name": "renounceOwnership",
      "outputs": [],
      "stateMutability": "nonpayable",
      "type": "function"
    },
    {
      "inputs": [],
      "name": "subscriptionPrice",
      "outputs": [
        {
          "internalType": "uint256",
          "name": "",
          "type": "uint256"
        }
      ],
      "stateMutability": "view",
      "type": "function",
      "constant": true
    },
    {
      "inputs": [
        {
          "internalType": "address",
          "name": "",
          "type": "address"
        }
      ],
      "name": "subscriptions",
      "outputs": [
        {
          "internalType": "uint256",
          "name": "expiration",
          "type": "uint256"
        },
        {
          "internalType": "enum CBAuth.Currency",
          "name": "currency",
          "type": "uint8"
        },
        {
          "internalType": "uint256",
          "name": "balance",
          "type": "uint256"
        }
      ],
      "stateMutability": "view",
      "type": "function",
      "constant": true
    },
    {
      "inputs": [
        {
          "internalType": "address",
          "name": "newOwner",
          "type": "address"
        }
      ],
      "name": "transferOwnership",
      "outputs": [],
      "stateMutability": "nonpayable",
      "type": "function"
    },
    {
      "inputs": [],
      "name": "calculateETHPrice",
      "outputs": [
        {
          "internalType": "uint256",
          "name": "",
          "type": "uint256"
        }
      ],
      "stateMutability": "view",
      "type": "function",
      "constant": true
    },
    {
      "inputs": [],
      "name": "subscribeETH",
      "outputs": [],
      "stateMutability": "payable",
      "type": "function",
      "payable": true
    },
    {
      "inputs": [],
      "name": "subscribeDAI",
      "outputs": [],
      "stateMutability": "nonpayable",
      "type": "function"
    },
    {
      "inputs": [],
      "name": "subscribeLifetime",
      "outputs": [],
      "stateMutability": "nonpayable",
      "type": "function"
    },
    {
      "inputs": [
        {
          "internalType": "address",
          "name": "subscriber",
          "type": "address"
        }
      ],
      "name": "isSubscribed",
      "outputs": [
        {
          "internalType": "bool",
          "name": "",
          "type": "bool"
        }
      ],
      "stateMutability": "view",
      "type": "function",
      "constant": true
    },
    {
      "inputs": [],
      "name": "requestRefund",
      "outputs": [],
      "stateMutability": "nonpayable",
      "type": "function"
    },
    {
      "inputs": [
        {
          "internalType": "uint256",
          "name": "_subscriptionPrice",
          "type": "uint256"
        }
      ],
      "name": "updatePrice",
      "outputs": [],
      "stateMutability": "nonpayable",
      "type": "function"
    },
    {
      "inputs": [],
      "name": "withdraw",
      "outputs": [],
      "stateMutability": "nonpayable",
      "type": "function"
    }
  ],
  "bytecode": "0x60806040526301e1338060025562278d006003553480156200002057600080fd5b506040516200234f3803806200234f8339818101604052810190620000469190620001f2565b620000666200005a620000f860201b60201c565b6200010060201b60201c565b82600460006101000a81548173ffffffffffffffffffffffffffffffffffffffff021916908373ffffffffffffffffffffffffffffffffffffffff16021790555081600560006101000a81548173ffffffffffffffffffffffffffffffffffffffff021916908373ffffffffffffffffffffffffffffffffffffffff16021790555080600181905550505050620002ba565b600033905090565b60008060009054906101000a900473ffffffffffffffffffffffffffffffffffffffff169050816000806101000a81548173ffffffffffffffffffffffffffffffffffffffff021916908373ffffffffffffffffffffffffffffffffffffffff1602179055508173ffffffffffffffffffffffffffffffffffffffff168173ffffffffffffffffffffffffffffffffffffffff167f8be0079c531659141344cd1fd0a4f28419497f9722a3daafe3b4186f6b6457e060405160405180910390a35050565b600081519050620001d58162000286565b92915050565b600081519050620001ec81620002a0565b92915050565b6000806000606084860312156200020857600080fd5b60006200021886828701620001c4565b93505060206200022b86828701620001c4565b92505060406200023e86828701620001db565b9150509250925092565b600062000255826200025c565b9050919050565b600073ffffffffffffffffffffffffffffffffffffffff82169050919050565b6000819050919050565b620002918162000248565b81146200029d57600080fd5b50565b620002ab816200027c565b8114620002b757600080fd5b50565b61208580620002ca6000396000f3fe6080604052600436106100c25760003560e01c8063bdc8e54c1161007f578063d5cef13311610059578063d5cef1331461020a578063e210e0ef14610221578063f046395a1461022b578063f2fde38b1461026a576100c2565b8063bdc8e54c146101b1578063c2e06367146101dc578063c57396d3146101f3576100c2565b80633ccfd60b146100c75780636de4f86e146100de578063715018a6146101095780638d6cc56d146101205780638da5cb5b14610149578063b92ae87c14610174575b600080fd5b3480156100d357600080fd5b506100dc610293565b005b3480156100ea57600080fd5b506100f36105d3565b6040516101009190611cc1565b60405180910390f35b34801561011557600080fd5b5061011e610607565b005b34801561012c57600080fd5b506101476004803603810190610142919061174b565b61068f565b005b34801561015557600080fd5b5061015e610715565b60405161016b9190611b0b565b60405180910390f35b34801561018057600080fd5b5061019b600480360381019061019691906116f9565b61073e565b6040516101a89190611b86565b60405180910390f35b3480156101bd57600080fd5b506101c66107e9565b6040516101d39190611cc1565b60405180910390f35b3480156101e857600080fd5b506101f16107ef565b005b3480156101ff57600080fd5b50610208610c03565b005b34801561021657600080fd5b5061021f610c05565b005b610229611142565b005b34801561023757600080fd5b50610252600480360381019061024d91906116f9565b6113c1565b60405161026193929190611cdc565b60405180910390f35b34801561027657600080fd5b50610291600480360381019061028c91906116f9565b6113f8565b005b61029b6114f0565b73ffffffffffffffffffffffffffffffffffffffff166102b9610715565b73ffffffffffffffffffffffffffffffffffffffff161461030f576040517f08c379a000000000000000000000000000000000000000000000000000000000815260040161030690611c61565b60405180910390fd5b6000610319610715565b73ffffffffffffffffffffffffffffffffffffffff164760405161033c90611af6565b60006040518083038185875af1925050503d8060008114610379576040519150601f19603f3d011682016040523d82523d6000602084013e61037e565b606091505b50509050806103c2576040517f08c379a00000000000000000000000000000000000000000000000000000000081526004016103b990611ba1565b60405180910390fd5b6000600460009054906101000a900473ffffffffffffffffffffffffffffffffffffffff1673ffffffffffffffffffffffffffffffffffffffff166370a08231306040518263ffffffff1660e01b815260040161041f9190611b0b565b60206040518083038186803b15801561043757600080fd5b505afa15801561044b573d6000803e3d6000fd5b505050506040513d601f19601f8201168201806040525081019061046f9190611774565b11156105d057600460009054906101000a900473ffffffffffffffffffffffffffffffffffffffff1673ffffffffffffffffffffffffffffffffffffffff1663a9059cbb33600460009054906101000a900473ffffffffffffffffffffffffffffffffffffffff1673ffffffffffffffffffffffffffffffffffffffff166370a08231306040518263ffffffff1660e01b815260040161050f9190611b0b565b60206040518083038186803b15801561052757600080fd5b505afa15801561053b573d6000803e3d6000fd5b505050506040513d601f19601f8201168201806040525081019061055f9190611774565b6040518363ffffffff1660e01b815260040161057c929190611b5d565b602060405180830381600087803b15801561059657600080fd5b505af11580156105aa573d6000803e3d6000fd5b505050506040513d601f19601f820116820180604052508101906105ce9190611722565b505b50565b6000806105de6114f8565b905080670de0b6b3a76400006001546105f79190611e20565b6106019190611def565b91505090565b61060f6114f0565b73ffffffffffffffffffffffffffffffffffffffff1661062d610715565b73ffffffffffffffffffffffffffffffffffffffff1614610683576040517f08c379a000000000000000000000000000000000000000000000000000000000815260040161067a90611c61565b60405180910390fd5b61068d60006115b7565b565b6106976114f0565b73ffffffffffffffffffffffffffffffffffffffff166106b5610715565b73ffffffffffffffffffffffffffffffffffffffff161461070b576040517f08c379a000000000000000000000000000000000000000000000000000000000815260040161070290611c61565b60405180910390fd5b8060018190555050565b60008060009054906101000a900473ffffffffffffffffffffffffffffffffffffffff16905090565b600080600660008473ffffffffffffffffffffffffffffffffffffffff1673ffffffffffffffffffffffffffffffffffffffff1681526020019081526020016000206000015414806107d1575042600660008473ffffffffffffffffffffffffffffffffffffffff1673ffffffffffffffffffffffffffffffffffffffff16815260200190815260200160002060000154105b156107df57600090506107e4565b600190505b919050565b60015481565b6000600660003373ffffffffffffffffffffffffffffffffffffffff1673ffffffffffffffffffffffffffffffffffffffff168152602001908152602001600020600001541480610881575042600660003373ffffffffffffffffffffffffffffffffffffffff1673ffffffffffffffffffffffffffffffffffffffff16815260200190815260200160002060000154105b6108c0576040517f08c379a00000000000000000000000000000000000000000000000000000000081526004016108b790611be1565b60405180910390fd5b670de0b6b3a76400006001546108d69190611e20565b600460009054906101000a900473ffffffffffffffffffffffffffffffffffffffff1673ffffffffffffffffffffffffffffffffffffffff166370a08231336040518263ffffffff1660e01b81526004016109319190611b0b565b60206040518083038186803b15801561094957600080fd5b505afa15801561095d573d6000803e3d6000fd5b505050506040513d601f19601f820116820180604052508101906109819190611774565b10156109c2576040517f08c379a00000000000000000000000000000000000000000000000000000000081526004016109b990611c21565b60405180910390fd5b600460009054906101000a900473ffffffffffffffffffffffffffffffffffffffff1673ffffffffffffffffffffffffffffffffffffffff166323b872dd3330670de0b6b3a7640000600154610a189190611e20565b6040518463ffffffff1660e01b8152600401610a3693929190611b26565b602060405180830381600087803b158015610a5057600080fd5b505af1158015610a64573d6000803e3d6000fd5b505050506040513d601f19601f82011682018060405250810190610a889190611722565b5060025442610a979190611d2f565b600660003373ffffffffffffffffffffffffffffffffffffffff1673ffffffffffffffffffffffffffffffffffffffff168152602001908152602001600020600001819055506001600660003373ffffffffffffffffffffffffffffffffffffffff1673ffffffffffffffffffffffffffffffffffffffff16815260200190815260200160002060010160006101000a81548160ff02191690836001811115610b69577f4e487b7100000000000000000000000000000000000000000000000000000000600052602160045260246000fd5b0217905550670de0b6b3a7640000600154610b849190611e20565b600660003373ffffffffffffffffffffffffffffffffffffffff1673ffffffffffffffffffffffffffffffffffffffff168152602001908152602001600020600201819055507fa88fac53823b534c72d6958345adbe6801e072750d83b490d52ebbac51473a6333604051610bf99190611b0b565b60405180910390a1565b565b6000600660003373ffffffffffffffffffffffffffffffffffffffff1673ffffffffffffffffffffffffffffffffffffffff16815260200190815260200160002060000154141580610c98575042600660003373ffffffffffffffffffffffffffffffffffffffff1673ffffffffffffffffffffffffffffffffffffffff16815260200190815260200160002060000154115b610cd7576040517f08c379a0000000000000000000000000000000000000000000000000000000008152600401610cce90611ca1565b60405180910390fd5b42600354600254600660003373ffffffffffffffffffffffffffffffffffffffff1673ffffffffffffffffffffffffffffffffffffffff16815260200190815260200160002060000154610d2b9190611e7a565b610d359190611d2f565b11610d75576040517f08c379a0000000000000000000000000000000000000000000000000000000008152600401610d6c90611c81565b60405180910390fd5b6000600660003373ffffffffffffffffffffffffffffffffffffffff1673ffffffffffffffffffffffffffffffffffffffff1681526020019081526020016000206002015490506000600660003373ffffffffffffffffffffffffffffffffffffffff1673ffffffffffffffffffffffffffffffffffffffff168152602001908152602001600020600201819055506000600660003373ffffffffffffffffffffffffffffffffffffffff1673ffffffffffffffffffffffffffffffffffffffff1681526020019081526020016000206000018190555060006001811115610e86577f4e487b7100000000000000000000000000000000000000000000000000000000600052602160045260246000fd5b600660003373ffffffffffffffffffffffffffffffffffffffff1673ffffffffffffffffffffffffffffffffffffffff16815260200190815260200160002060010160009054906101000a900460ff166001811115610f0e577f4e487b7100000000000000000000000000000000000000000000000000000000600052602160045260246000fd5b1415610fc65760003373ffffffffffffffffffffffffffffffffffffffff1682604051610f3a90611af6565b60006040518083038185875af1925050503d8060008114610f77576040519150601f19603f3d011682016040523d82523d6000602084013e610f7c565b606091505b5050905080610fc0576040517f08c379a0000000000000000000000000000000000000000000000000000000008152600401610fb790611c41565b60405180910390fd5b5061113f565b600180811115610fff577f4e487b7100000000000000000000000000000000000000000000000000000000600052602160045260246000fd5b600660003373ffffffffffffffffffffffffffffffffffffffff1673ffffffffffffffffffffffffffffffffffffffff16815260200190815260200160002060010160009054906101000a900460ff166001811115611087577f4e487b7100000000000000000000000000000000000000000000000000000000600052602160045260246000fd5b141561113e57600460009054906101000a900473ffffffffffffffffffffffffffffffffffffffff1673ffffffffffffffffffffffffffffffffffffffff1663a9059cbb33836040518363ffffffff1660e01b81526004016110ea929190611b5d565b602060405180830381600087803b15801561110457600080fd5b505af1158015611118573d6000803e3d6000fd5b505050506040513d601f19601f8201168201806040525081019061113c9190611722565b505b5b50565b6000600660003373ffffffffffffffffffffffffffffffffffffffff1673ffffffffffffffffffffffffffffffffffffffff1681526020019081526020016000206000015414806111d4575042600660003373ffffffffffffffffffffffffffffffffffffffff1673ffffffffffffffffffffffffffffffffffffffff16815260200190815260200160002060000154105b611213576040517f08c379a000000000000000000000000000000000000000000000000000000000815260040161120a90611be1565b60405180910390fd5b61121b6105d3565b341461125c576040517f08c379a000000000000000000000000000000000000000000000000000000000815260040161125390611c01565b60405180910390fd5b6002544261126a9190611d2f565b600660003373ffffffffffffffffffffffffffffffffffffffff1673ffffffffffffffffffffffffffffffffffffffff168152602001908152602001600020600001819055506000600660003373ffffffffffffffffffffffffffffffffffffffff1673ffffffffffffffffffffffffffffffffffffffff16815260200190815260200160002060010160006101000a81548160ff0219169083600181111561133c577f4e487b7100000000000000000000000000000000000000000000000000000000600052602160045260246000fd5b021790555034600660003373ffffffffffffffffffffffffffffffffffffffff1673ffffffffffffffffffffffffffffffffffffffff168152602001908152602001600020600201819055507fa88fac53823b534c72d6958345adbe6801e072750d83b490d52ebbac51473a63336040516113b79190611b0b565b60405180910390a1565b60066020528060005260406000206000915090508060000154908060010160009054906101000a900460ff16908060020154905083565b6114006114f0565b73ffffffffffffffffffffffffffffffffffffffff1661141e610715565b73ffffffffffffffffffffffffffffffffffffffff1614611474576040517f08c379a000000000000000000000000000000000000000000000000000000000815260040161146b90611c61565b60405180910390fd5b600073ffffffffffffffffffffffffffffffffffffffff168173ffffffffffffffffffffffffffffffffffffffff1614156114e4576040517f08c379a00000000000000000000000000000000000000000000000000000000081526004016114db90611bc1565b60405180910390fd5b6114ed816115b7565b50565b600033905090565b600080600560009054906101000a900473ffffffffffffffffffffffffffffffffffffffff1673ffffffffffffffffffffffffffffffffffffffff1663feaf968c6040518163ffffffff1660e01b815260040160a06040518083038186803b15801561156357600080fd5b505afa158015611577573d6000803e3d6000fd5b505050506040513d601f19601f8201168201806040525081019061159b919061179d565b5050509150506305f5e100816115b19190611d85565b91505090565b60008060009054906101000a900473ffffffffffffffffffffffffffffffffffffffff169050816000806101000a81548173ffffffffffffffffffffffffffffffffffffffff021916908373ffffffffffffffffffffffffffffffffffffffff1602179055508173ffffffffffffffffffffffffffffffffffffffff168173ffffffffffffffffffffffffffffffffffffffff167f8be0079c531659141344cd1fd0a4f28419497f9722a3daafe3b4186f6b6457e060405160405180910390a35050565b60008135905061168a81611fdc565b92915050565b60008151905061169f81611ff3565b92915050565b6000815190506116b48161200a565b92915050565b6000813590506116c981612021565b92915050565b6000815190506116de81612021565b92915050565b6000815190506116f381612038565b92915050565b60006020828403121561170b57600080fd5b60006117198482850161167b565b91505092915050565b60006020828403121561173457600080fd5b600061174284828501611690565b91505092915050565b60006020828403121561175d57600080fd5b600061176b848285016116ba565b91505092915050565b60006020828403121561178657600080fd5b6000611794848285016116cf565b91505092915050565b600080600080600060a086880312156117b557600080fd5b60006117c3888289016116e4565b95505060206117d4888289016116a5565b94505060406117e5888289016116cf565b93505060606117f6888289016116cf565b9250506080611807888289016116e4565b9150509295509295909350565b61181d81611eae565b82525050565b61182c81611ec0565b82525050565b61183b81611f29565b82525050565b600061184e601283611d1e565b91507f4661696c656420746f20776974686472617700000000000000000000000000006000830152602082019050919050565b600061188e602683611d1e565b91507f4f776e61626c653a206e6577206f776e657220697320746865207a65726f206160008301527f64647265737300000000000000000000000000000000000000000000000000006020830152604082019050919050565b60006118f4601383611d1e565b91507f416c726561647920737562736372696265642e000000000000000000000000006000830152602082019050919050565b6000611934602483611d1e565b91507f506c656173652c207061792074686520657861637420616d6f756e7420696e2060008301527f4554482e000000000000000000000000000000000000000000000000000000006020830152604082019050919050565b600061199a601a83611d1e565b91507f596f7520646f6e2774206861766520656e6f756768204441492e0000000000006000830152602082019050919050565b60006119da601083611d1e565b91507f4661696c656420746f20526566756e64000000000000000000000000000000006000830152602082019050919050565b6000611a1a602083611d1e565b91507f4f776e61626c653a2063616c6c6572206973206e6f7420746865206f776e65726000830152602082019050919050565b6000611a5a601383611d1e565b91507f477261636520506572696f6420456e6465642e000000000000000000000000006000830152602082019050919050565b6000611a9a600f83611d1e565b91507f4e6f7420737562736372696265642e00000000000000000000000000000000006000830152602082019050919050565b6000611ada600083611d13565b9150600082019050919050565b611af081611f09565b82525050565b6000611b0182611acd565b9150819050919050565b6000602082019050611b206000830184611814565b92915050565b6000606082019050611b3b6000830186611814565b611b486020830185611814565b611b556040830184611ae7565b949350505050565b6000604082019050611b726000830185611814565b611b7f6020830184611ae7565b9392505050565b6000602082019050611b9b6000830184611823565b92915050565b60006020820190508181036000830152611bba81611841565b9050919050565b60006020820190508181036000830152611bda81611881565b9050919050565b60006020820190508181036000830152611bfa816118e7565b9050919050565b60006020820190508181036000830152611c1a81611927565b9050919050565b60006020820190508181036000830152611c3a8161198d565b9050919050565b60006020820190508181036000830152611c5a816119cd565b9050919050565b60006020820190508181036000830152611c7a81611a0d565b9050919050565b60006020820190508181036000830152611c9a81611a4d565b9050919050565b60006020820190508181036000830152611cba81611a8d565b9050919050565b6000602082019050611cd66000830184611ae7565b92915050565b6000606082019050611cf16000830186611ae7565b611cfe6020830185611832565b611d0b6040830184611ae7565b949350505050565b600081905092915050565b600082825260208201905092915050565b6000611d3a82611f09565b9150611d4583611f09565b9250827fffffffffffffffffffffffffffffffffffffffffffffffffffffffffffffffff03821115611d7a57611d79611f3b565b5b828201905092915050565b6000611d9082611edf565b9150611d9b83611edf565b925082611dab57611daa611f6a565b5b600160000383147f800000000000000000000000000000000000000000000000000000000000000083141615611de457611de3611f3b565b5b828205905092915050565b6000611dfa82611f09565b9150611e0583611f09565b925082611e1557611e14611f6a565b5b828204905092915050565b6000611e2b82611f09565b9150611e3683611f09565b9250817fffffffffffffffffffffffffffffffffffffffffffffffffffffffffffffffff0483118215151615611e6f57611e6e611f3b565b5b828202905092915050565b6000611e8582611f09565b9150611e9083611f09565b925082821015611ea357611ea2611f3b565b5b828203905092915050565b6000611eb982611ee9565b9050919050565b60008115159050919050565b6000819050611eda82611fc8565b919050565b6000819050919050565b600073ffffffffffffffffffffffffffffffffffffffff82169050919050565b6000819050919050565b600069ffffffffffffffffffff82169050919050565b6000611f3482611ecc565b9050919050565b7f4e487b7100000000000000000000000000000000000000000000000000000000600052601160045260246000fd5b7f4e487b7100000000000000000000000000000000000000000000000000000000600052601260045260246000fd5b7f4e487b7100000000000000000000000000000000000000000000000000000000600052602160045260246000fd5b60028110611fd957611fd8611f99565b5b50565b611fe581611eae565b8114611ff057600080fd5b50565b611ffc81611ec0565b811461200757600080fd5b50565b61201381611edf565b811461201e57600080fd5b50565b61202a81611f09565b811461203557600080fd5b50565b61204181611f13565b811461204c57600080fd5b5056fea264697066735822122010d54a345e0663437ef4a97d0528f19a35fe420410b0e16d28b91267f0db520664736f6c63430008000033",
  "immutableReferences": {},
  "source": "// SPDX-License-Identifier: GPL-3.0\n\npragma solidity 0.8.0;\n\nimport \"@openzeppelin/contracts/token/ERC20/IERC20.sol\";\nimport \"@openzeppelin/contracts/access/Ownable.sol\";\nimport \"@chainlink/contracts/src/v0.8/interfaces/AggregatorV3Interface.sol\";\n\n/// @title Crypto Briefing User Authentication\n/// @author Anton Tarasov\n/// @notice Enables users to get access to SIMETRI via ETH or a stablecoin\n/// @dev Lifetime subsription via an NFT minter will be implemented\ncontract CBAuth is Ownable {\n\n\t/// @notice Emitted when a person is subscribed for the service\n\t/// @param subscriber Subscriber ETH address\n\tevent Subscribed(address subscriber);\n\n\t/// @notice Emitted when a person gets a refund\n\t/// @param subscriber Subscriber ETH address\n\tevent Refunded(address subscriber);\n\n\t/// @notice Subscription price is in USD\n\t/// @dev Assigned in constructor\n\tuint256 public subscriptionPrice;\n\n\t/// @dev Lengths of subscription and grace period in seconds for tracking expiration & refund eligibility\n\tuint256 internal year = 31536000;\n\tuint256 internal gracePeriod = 2592000;\n\n\t/// @dev IERC20 interface for interacting with DAI\n\tIERC20 internal dai;\n\n\t/// @dev Chainlink interface for getting the price of ETH in USD\n\tAggregatorV3Interface internal ETHUSDPriceFeed;\n\n\t/// @dev Helps determining in which currency the subscriber paid, important for refunds\n\tenum Currency { ETH, DAI }\n\tCurrency constant defaultChoice = Currency.ETH;\n\n\t/// @dev Data used for checking whether a subscription is active and is refund possible\n\tstruct Subscription {\n\t\tuint256 expiration;\n\t\tCurrency currency;\n\t\tuint256 balance;\n\t}\n\n\t/// @notice Information about each ETH address subscription, all zeroes means \"not subscribed\"\n\tmapping(address=>Subscription) public subscriptions;\n\n\t/// @param daiAddress Address of the DAI contract\n\t/// @param ethUsdOracle Address of Chainlink data feed\n\t/// @param initSubscriptionPrice Sets initial price of a subscription in USD w/o decimals\n\t/// @dev Had to use USDT contract on Rinkeby instead of DAI\n\tconstructor(address daiAddress, address ethUsdOracle, uint256 initSubscriptionPrice) {\n\t\t\tdai = IERC20(daiAddress);\n\t\t\tETHUSDPriceFeed = AggregatorV3Interface(ethUsdOracle);\n\t\t\tsubscriptionPrice = initSubscriptionPrice; \n\t}\n\n\tmodifier notSubscribed {\n\t\trequire(subscriptions[msg.sender].expiration == 0 || subscriptions[msg.sender].expiration < block.timestamp, \"Already subscribed.\");\n\t\t_;\n\t}\n\n\tmodifier subscribed {\n\t\trequire(subscriptions[msg.sender].expiration != 0 || subscriptions[msg.sender].expiration > block.timestamp, \"Not subscribed.\");\n\t\t_;\n\t}\n\n\tmodifier refundActive {\n\t\trequire(subscriptions[msg.sender].expiration - year + gracePeriod > block.timestamp, \"Grace Period Ended.\");\n\t\t_;\n\t}\n    \n\t///@dev Queries ETH/USD price from Chainlink data feed, the feed returns multiple items but we only need \"answer\"\n\tfunction getETHUSDPrice() \n\t\tinternal \n\t\tview \n\t\treturns (int256) {\n\t\t\t(\n\t\t\t\t\t, int256 answer, , ,\n\t\t\t) = ETHUSDPriceFeed.latestRoundData();\n\t\t\treturn answer / 1e8;\n\t\t}\n\n\t/// @dev Uses Chainlink data to calculate price of a subscription, DAI has 18 decimals, so multiplying the price by 1e18\n\tfunction calculateETHPrice()\n\t\tpublic \n\t\tview\n\t\treturns (uint256) {\n\t\t\tint256 ethPrice = getETHUSDPrice();\n\t\t\treturn subscriptionPrice * 1e18 / uint256(ethPrice);\n\t\t}\n\n\t/// @notice Checks whether a sender has enough ETH and if yes accepts payment and makes a new subscription\n\t/// @dev Accepts only the exact amount to avoid the need to send funds back\n\tfunction subscribeETH() \n\t\texternal \n\t\tpayable \n\t\tnotSubscribed {\n\t\t\trequire(msg.value == calculateETHPrice(), \"Please, pay the exact amount in ETH.\");\n\n\t\t\tsubscriptions[msg.sender].expiration = block.timestamp + year;\n\t\t\tsubscriptions[msg.sender].currency = Currency.ETH;\n\t\t\tsubscriptions[msg.sender].balance = msg.value;\n\n\t\t\temit Subscribed(msg.sender);\n    }\n\n\t/// @notice Checks whether a sender has enough DAI and if yes accepts payment and makes a new subscription\n\t/// @dev Prevent an unnecessary call to DAI contract in the case of not enough funds with \"require\"\n\tfunction subscribeDAI() \n\t\texternal \n\t\tnotSubscribed {\n\t\t\trequire(dai.balanceOf(msg.sender) >= subscriptionPrice * 1e18, \"You don't have enough DAI.\");\n\n\t\t\tdai.transferFrom(msg.sender, address(this), subscriptionPrice * 1e18);\n\t\t\tsubscriptions[msg.sender].expiration = block.timestamp + year;\n\t\t\tsubscriptions[msg.sender].currency = Currency.DAI;\n\t\t\tsubscriptions[msg.sender].balance = subscriptionPrice * 1e18;\n\n\t\t\temit Subscribed(msg.sender);\n    }\n\n\t/// @notice Mint an NFT that represents a lifetime subscription\n\t/// @dev The NFT minter will be a separate contract\n\tfunction subscribeLifetime() external {\n\t\t// TODO: create an external NFT minter an a function that calls it and updates state.\n\t}\n\n\t/// @notice Checks whether an address is subscribed\n\t/// @param subscriber ETH address being checked\n\tfunction isSubscribed(address subscriber) \n\t\tpublic \n\t\tview \n\t\treturns(bool) {\n\t\t\tif (subscriptions[subscriber].expiration == 0 || subscriptions[subscriber].expiration < block.timestamp)\n\t\t\t\treturn false;\n\t\t\telse\n\t\t\t\treturn true;\n\t}\n\n\t/// @notice Checks whether an address is subscribed and the grace period of 30 days isn't over, then refunds\n\t/// @dev Uses checks-effects-interactions pattern to prevent re-entrancy\n\tfunction requestRefund() \n\t\texternal \n\t\tsubscribed \n\t\trefundActive {\n\t\t\tuint256 refundAmount = subscriptions[msg.sender].balance;\n\n\t\t\tsubscriptions[msg.sender].balance = 0;\n\t\t\tsubscriptions[msg.sender].expiration = 0;\n\n\t\t\tif (subscriptions[msg.sender].currency == Currency.ETH) {\n\t\t\t\t\t(bool sent, ) = msg.sender.call{value: refundAmount}(\"\");\n\t\t\t\t\trequire(sent, \"Failed to Refund\");\n\t\t\t} else if (subscriptions[msg.sender].currency == Currency.DAI) {\n\t\t\t\t\tdai.transfer(msg.sender, refundAmount);\n\t\t\t}\n\t\t}\n\n\t/// @notice Lets the owner to update the yearly price in USD\n\t/// @param _subscriptionPrice New subscription price\n\tfunction updatePrice(uint256 _subscriptionPrice)\n\t\texternal\n\t\tonlyOwner {\n\t\t\tsubscriptionPrice = _subscriptionPrice;\n\t\t}\n\t\t\n\t/// @notice Lets the owner to withdraw funds\n\t/// @dev Prevents unnecessary call to DAI if the contract doesn't hold DAI\n\tfunction withdraw() \n\t\t\texternal \n\t\t\tonlyOwner {\n\t\t\t\t(bool sent, ) = owner().call{value: address(this).balance}(\"\");\n\t\t\t\trequire(sent, \"Failed to withdraw\");\n\t\t\t\tif (dai.balanceOf(address(this)) > 0)\n\t\t\t\t\tdai.transfer(msg.sender, dai.balanceOf(address(this)));\n\t\t}\n}",
  "sourcePath": "/Users/toha-kartoha/Desktop/latest_code_desktop/blockchain-developer-bootcamp-final-project/contracts/CBAuth.sol",
  "compiler": {
    "name": "solc",
    "version": "0.8.0+commit.c7dfd78e.Emscripten.clang"
  },
  "schemaVersion": "3.4.3",
  "updatedAt": "2021-11-30T20:57:10.962Z",
  "networkType": "ethereum",
  "devdoc": {
    "author": "Anton Tarasov",
    "details": "Lifetime subsription via an NFT minter will be implemented",
    "events": {
      "Refunded(address)": {
        "params": {
          "subscriber": "Subscriber ETH address"
        }
      },
      "Subscribed(address)": {
        "params": {
          "subscriber": "Subscriber ETH address"
        }
      }
    },
    "kind": "dev",
    "methods": {
      "calculateETHPrice()": {
        "details": "Uses Chainlink data to calculate price of a subscription, DAI has 18 decimals, so multiplying the price by 1e18"
      },
      "constructor": {
        "details": "Had to use USDT contract on Rinkeby instead of DAI",
        "params": {
          "daiAddress": "Address of the DAI contract",
          "ethUsdOracle": "Address of Chainlink data feed",
          "initSubscriptionPrice": "Sets initial price of a subscription in USD w/o decimals"
        }
      },
      "isSubscribed(address)": {
        "params": {
          "subscriber": "ETH address being checked"
        }
      },
      "owner()": {
        "details": "Returns the address of the current owner."
      },
      "renounceOwnership()": {
        "details": "Leaves the contract without owner. It will not be possible to call `onlyOwner` functions anymore. Can only be called by the current owner. NOTE: Renouncing ownership will leave the contract without an owner, thereby removing any functionality that is only available to the owner."
      },
      "requestRefund()": {
        "details": "Uses checks-effects-interactions pattern to prevent re-entrancy"
      },
      "subscribeDAI()": {
        "details": "Prevent an unnecessary call to DAI contract in the case of not enough funds with \"require\""
      },
      "subscribeETH()": {
        "details": "Accepts only the exact amount to avoid the need to send funds back"
      },
      "subscribeLifetime()": {
        "details": "The NFT minter will be a separate contract"
      },
      "transferOwnership(address)": {
        "details": "Transfers ownership of the contract to a new account (`newOwner`). Can only be called by the current owner."
      },
      "updatePrice(uint256)": {
        "params": {
          "_subscriptionPrice": "New subscription price"
        }
      },
      "withdraw()": {
        "details": "Prevents unnecessary call to DAI if the contract doesn't hold DAI"
      }
    },
    "stateVariables": {
      "ETHUSDPriceFeed": {
        "details": "Chainlink interface for getting the price of ETH in USD"
      },
      "dai": {
        "details": "IERC20 interface for interacting with DAI"
      },
      "subscriptionPrice": {
        "details": "Assigned in constructor"
      },
      "year": {
        "details": "Lengths of subscription and grace period in seconds for tracking expiration & refund eligibility"
      }
    },
    "title": "Crypto Briefing User Authentication",
    "version": 1
  },
  "userdoc": {
    "events": {
      "Refunded(address)": {
        "notice": "Emitted when a person gets a refund"
      },
      "Subscribed(address)": {
        "notice": "Emitted when a person is subscribed for the service"
      }
    },
    "kind": "user",
    "methods": {
      "isSubscribed(address)": {
        "notice": "Checks whether an address is subscribed"
      },
      "requestRefund()": {
        "notice": "Checks whether an address is subscribed and the grace period of 30 days isn't over, then refunds"
      },
      "subscribeDAI()": {
        "notice": "Checks whether a sender has enough DAI and if yes accepts payment and makes a new subscription"
      },
      "subscribeETH()": {
        "notice": "Checks whether a sender has enough ETH and if yes accepts payment and makes a new subscription"
      },
      "subscribeLifetime()": {
        "notice": "Mint an NFT that represents a lifetime subscription"
      },
      "subscriptionPrice()": {
        "notice": "Subscription price is in USD"
      },
      "subscriptions(address)": {
        "notice": "Information about each ETH address subscription, all zeroes means \"not subscribed\""
      },
      "updatePrice(uint256)": {
        "notice": "Lets the owner to update the yearly price in USD"
      },
      "withdraw()": {
        "notice": "Lets the owner to withdraw funds"
      }
    },
    "notice": "Enables users to get access to SIMETRI via ETH or a stablecoin",
    "version": 1
  }
}