{
  "contractName": "CBAuth",
  "abi": [
    {
      "anonymous": false,
      "inputs": [
        {
          "indexed": true,
          "internalType": "address",
          "name": "previousOwner",
          "type": "address"
        },
        {
          "indexed": true,
          "internalType": "address",
          "name": "newOwner",
          "type": "address"
        }
      ],
      "name": "OwnershipTransferred",
      "type": "event"
    },
    {
      "inputs": [],
      "name": "owner",
      "outputs": [
        {
          "internalType": "address",
          "name": "",
          "type": "address"
        }
      ],
      "stateMutability": "view",
      "type": "function",
      "constant": true
    },
    {
      "inputs": [],
      "name": "renounceOwnership",
      "outputs": [],
      "stateMutability": "nonpayable",
      "type": "function"
    },
    {
      "inputs": [
        {
          "internalType": "address",
          "name": "",
          "type": "address"
        }
      ],
      "name": "subscriptions",
      "outputs": [
        {
          "internalType": "uint256",
          "name": "",
          "type": "uint256"
        }
      ],
      "stateMutability": "view",
      "type": "function",
      "constant": true
    },
    {
      "inputs": [
        {
          "internalType": "address",
          "name": "newOwner",
          "type": "address"
        }
      ],
      "name": "transferOwnership",
      "outputs": [],
      "stateMutability": "nonpayable",
      "type": "function"
    },
    {
      "inputs": [],
      "name": "subscribe",
      "outputs": [],
      "stateMutability": "payable",
      "type": "function",
      "payable": true
    },
    {
      "inputs": [],
      "name": "isSubscribed",
      "outputs": [
        {
          "internalType": "bool",
          "name": "",
          "type": "bool"
        }
      ],
      "stateMutability": "view",
      "type": "function",
      "constant": true
    },
    {
      "inputs": [],
      "name": "requestRefund",
      "outputs": [],
      "stateMutability": "payable",
      "type": "function",
      "payable": true
    },
    {
      "inputs": [],
      "name": "withdraw",
      "outputs": [],
      "stateMutability": "payable",
      "type": "function",
      "payable": true
    }
  ],
  "bytecode": "0x608060405234801561001057600080fd5b5061002d61002261003260201b60201c565b61003a60201b60201c565b6100fe565b600033905090565b60008060009054906101000a900473ffffffffffffffffffffffffffffffffffffffff169050816000806101000a81548173ffffffffffffffffffffffffffffffffffffffff021916908373ffffffffffffffffffffffffffffffffffffffff1602179055508173ffffffffffffffffffffffffffffffffffffffff168173ffffffffffffffffffffffffffffffffffffffff167f8be0079c531659141344cd1fd0a4f28419497f9722a3daafe3b4186f6b6457e060405160405180910390a35050565b610f248061010d6000396000f3fe60806040526004361061007b5760003560e01c80638f449a051161004e5780638f449a05146100f7578063d5cef13314610101578063f046395a1461010b578063f2fde38b146101485761007b565b80633ccfd60b14610080578063715018a61461008a5780638a281554146100a15780638da5cb5b146100cc575b600080fd5b610088610171565b005b34801561009657600080fd5b5061009f6102a6565b005b3480156100ad57600080fd5b506100b661032e565b6040516100c39190610c84565b60405180910390f35b3480156100d857600080fd5b506100e16103d1565b6040516100ee9190610c69565b60405180910390f35b6100ff6103fa565b005b610109610564565b005b34801561011757600080fd5b50610132600480360381019061012d91906109be565b6107cd565b60405161013f9190610d9f565b60405180910390f35b34801561015457600080fd5b5061016f600480360381019061016a91906109be565b6107e5565b005b6101796108dd565b73ffffffffffffffffffffffffffffffffffffffff166101976103d1565b73ffffffffffffffffffffffffffffffffffffffff16146101ed576040517f08c379a00000000000000000000000000000000000000000000000000000000081526004016101e490610d1f565b60405180910390fd5b6000806101f86103d1565b73ffffffffffffffffffffffffffffffffffffffff164760405161021b90610c54565b60006040518083038185875af1925050503d8060008114610258576040519150601f19603f3d011682016040523d82523d6000602084013e61025d565b606091505b5091509150816102a2576040517f08c379a000000000000000000000000000000000000000000000000000000000815260040161029990610c9f565b60405180910390fd5b5050565b6102ae6108dd565b73ffffffffffffffffffffffffffffffffffffffff166102cc6103d1565b73ffffffffffffffffffffffffffffffffffffffff1614610322576040517f08c379a000000000000000000000000000000000000000000000000000000000815260040161031990610d1f565b60405180910390fd5b61032c60006108e5565b565b600080600160003373ffffffffffffffffffffffffffffffffffffffff1673ffffffffffffffffffffffffffffffffffffffff1681526020019081526020016000205414806103bb575042600160003373ffffffffffffffffffffffffffffffffffffffff1673ffffffffffffffffffffffffffffffffffffffff16815260200190815260200160002054105b156103c957600090506103ce565b600190505b90565b60008060009054906101000a900473ffffffffffffffffffffffffffffffffffffffff16905090565b6706f05b59d3b200003414610444576040517f08c379a000000000000000000000000000000000000000000000000000000000815260040161043b90610d7f565b60405180910390fd5b6000600160003373ffffffffffffffffffffffffffffffffffffffff1673ffffffffffffffffffffffffffffffffffffffff1681526020019081526020016000205414806104d0575042600160003373ffffffffffffffffffffffffffffffffffffffff1673ffffffffffffffffffffffffffffffffffffffff16815260200190815260200160002054105b61050f576040517f08c379a000000000000000000000000000000000000000000000000000000000815260040161050690610cdf565b60405180910390fd5b6301e133804261051f9190610dd6565b600160003373ffffffffffffffffffffffffffffffffffffffff1673ffffffffffffffffffffffffffffffffffffffff16815260200190815260200160002081905550565b6000600160003373ffffffffffffffffffffffffffffffffffffffff1673ffffffffffffffffffffffffffffffffffffffff168152602001908152602001600020541180156105f1575042600160003373ffffffffffffffffffffffffffffffffffffffff1673ffffffffffffffffffffffffffffffffffffffff16815260200190815260200160002054115b610630576040517f08c379a000000000000000000000000000000000000000000000000000000000815260040161062790610d5f565b60405180910390fd5b4262281ac06301e13380600160003373ffffffffffffffffffffffffffffffffffffffff1673ffffffffffffffffffffffffffffffffffffffff168152602001908152602001600020546106849190610e2c565b61068e9190610dd6565b116106ce576040517f08c379a00000000000000000000000000000000000000000000000000000000081526004016106c590610d3f565b60405180910390fd5b6000600160003373ffffffffffffffffffffffffffffffffffffffff1673ffffffffffffffffffffffffffffffffffffffff168152602001908152602001600020819055506000803373ffffffffffffffffffffffffffffffffffffffff166706f05b59d3b2000060405161074290610c54565b60006040518083038185875af1925050503d806000811461077f576040519150601f19603f3d011682016040523d82523d6000602084013e610784565b606091505b5091509150816107c9576040517f08c379a00000000000000000000000000000000000000000000000000000000081526004016107c090610cff565b60405180910390fd5b5050565b60016020528060005260406000206000915090505481565b6107ed6108dd565b73ffffffffffffffffffffffffffffffffffffffff1661080b6103d1565b73ffffffffffffffffffffffffffffffffffffffff1614610861576040517f08c379a000000000000000000000000000000000000000000000000000000000815260040161085890610d1f565b60405180910390fd5b600073ffffffffffffffffffffffffffffffffffffffff168173ffffffffffffffffffffffffffffffffffffffff1614156108d1576040517f08c379a00000000000000000000000000000000000000000000000000000000081526004016108c890610cbf565b60405180910390fd5b6108da816108e5565b50565b600033905090565b60008060009054906101000a900473ffffffffffffffffffffffffffffffffffffffff169050816000806101000a81548173ffffffffffffffffffffffffffffffffffffffff021916908373ffffffffffffffffffffffffffffffffffffffff1602179055508173ffffffffffffffffffffffffffffffffffffffff168173ffffffffffffffffffffffffffffffffffffffff167f8be0079c531659141344cd1fd0a4f28419497f9722a3daafe3b4186f6b6457e060405160405180910390a35050565b6000813590506109b881610ed7565b92915050565b6000602082840312156109d057600080fd5b60006109de848285016109a9565b91505092915050565b6109f081610e60565b82525050565b6109ff81610e72565b82525050565b6000610a12601283610dc5565b91507f4661696c656420746f20776974686472617700000000000000000000000000006000830152602082019050919050565b6000610a52602683610dc5565b91507f4f776e61626c653a206e6577206f776e657220697320746865207a65726f206160008301527f64647265737300000000000000000000000000000000000000000000000000006020830152604082019050919050565b6000610ab8601383610dc5565b91507f416c726561647920737562736372696265642e000000000000000000000000006000830152602082019050919050565b6000610af8601083610dc5565b91507f4661696c656420746f20526566756e64000000000000000000000000000000006000830152602082019050919050565b6000610b38602083610dc5565b91507f4f776e61626c653a2063616c6c6572206973206e6f7420746865206f776e65726000830152602082019050919050565b6000610b78601383610dc5565b91507f477261636520506572696f6420456e6465642e000000000000000000000000006000830152602082019050919050565b6000610bb8600083610dba565b9150600082019050919050565b6000610bd2600f83610dc5565b91507f4e6f7420537562736372696265642e00000000000000000000000000000000006000830152602082019050919050565b6000610c12600a83610dc5565b91507f57726f6e67206665652e000000000000000000000000000000000000000000006000830152602082019050919050565b610c4e81610e9e565b82525050565b6000610c5f82610bab565b9150819050919050565b6000602082019050610c7e60008301846109e7565b92915050565b6000602082019050610c9960008301846109f6565b92915050565b60006020820190508181036000830152610cb881610a05565b9050919050565b60006020820190508181036000830152610cd881610a45565b9050919050565b60006020820190508181036000830152610cf881610aab565b9050919050565b60006020820190508181036000830152610d1881610aeb565b9050919050565b60006020820190508181036000830152610d3881610b2b565b9050919050565b60006020820190508181036000830152610d5881610b6b565b9050919050565b60006020820190508181036000830152610d7881610bc5565b9050919050565b60006020820190508181036000830152610d9881610c05565b9050919050565b6000602082019050610db46000830184610c45565b92915050565b600081905092915050565b600082825260208201905092915050565b6000610de182610e9e565b9150610dec83610e9e565b9250827fffffffffffffffffffffffffffffffffffffffffffffffffffffffffffffffff03821115610e2157610e20610ea8565b5b828201905092915050565b6000610e3782610e9e565b9150610e4283610e9e565b925082821015610e5557610e54610ea8565b5b828203905092915050565b6000610e6b82610e7e565b9050919050565b60008115159050919050565b600073ffffffffffffffffffffffffffffffffffffffff82169050919050565b6000819050919050565b7f4e487b7100000000000000000000000000000000000000000000000000000000600052601160045260246000fd5b610ee081610e60565b8114610eeb57600080fd5b5056fea2646970667358221220b775f17d0f4e403c8b2115f15e604bd66db011671b026b5a1e8c2e15a0a85d8264736f6c63430008000033",
  "immutableReferences": {},
  "source": "// SPDX-License-Identifier: GPL-3.0\n\npragma solidity 0.8.0;\n\nimport \"@openzeppelin/contracts/access/Ownable.sol\";\n\n/// @title Crypto Briefing User Authentication\n/// @author Anton Tarasov\n/// @notice This is a final project for the ConsenSys Bootcamp\ncontract CBAuth is Ownable {\n    /// @dev Each address has a timestamp after which a subscription is inactive.\n    mapping(address=>uint256) public subscriptions;\n    \n    /// @dev Receives a subscription fee and assigns a timestamp in the future.\n    function subscribe() public payable {\n        require(msg.value == 0.5 ether, \"Wrong fee.\");\n        require(subscriptions[msg.sender] == 0 || subscriptions[msg.sender] < block.timestamp, \"Already subscribed.\");\n        subscriptions[msg.sender] = block.timestamp + 31536000;\n    }\n    \n    /// @dev Checks whether a tx sender is subscribed.\n    function isSubscribed() public view returns(bool) {\n        if (subscriptions[msg.sender] == 0 || subscriptions[msg.sender] < block.timestamp) {\n            return(false);\n        } else {\n            return (true);\n        }\n    }\n\n    /// @dev Checks whether a person is subscribed and the grace period of 1 month isn't over. If all ok -> refund.\n    function requestRefund() public payable {\n        require(subscriptions[msg.sender] > 0 && subscriptions[msg.sender] > block.timestamp, \"Not Subscribed.\");\n        require(subscriptions[msg.sender] - 31536000 + 2628288 > block.timestamp, \"Grace Period Ended.\");\n        /// @dev Update state variable before making an external call to prevent re-entrancy.\n        subscriptions[msg.sender] = 0;\n        (bool sent, bytes memory data) = msg.sender.call{value: 0.5 ether}(\"\");\n        require(sent, \"Failed to Refund\");\n    }\n\n    /// @dev Allows only the Owner of the smart-contract to withdraw funds.\n    function withdraw() public payable onlyOwner {\n        (bool sent, bytes memory data) = owner().call{value: address(this).balance}(\"\");\n        require(sent, \"Failed to withdraw\");\n    }\n}",
  "sourcePath": "/Users/toha-kartoha/Desktop/latest_code_desktop/blockchain-developer-bootcamp-final-project/contracts/CBAuth.sol",
  "compiler": {
    "name": "solc",
    "version": "0.8.0+commit.c7dfd78e.Emscripten.clang"
  },
  "schemaVersion": "3.4.3",
  "updatedAt": "2021-11-17T13:26:28.544Z",
  "networkType": "ethereum",
  "devdoc": {
    "author": "Anton Tarasov",
    "kind": "dev",
    "methods": {
      "isSubscribed()": {
        "details": "Checks whether a tx sender is subscribed."
      },
      "owner()": {
        "details": "Returns the address of the current owner."
      },
      "renounceOwnership()": {
        "details": "Leaves the contract without owner. It will not be possible to call `onlyOwner` functions anymore. Can only be called by the current owner. NOTE: Renouncing ownership will leave the contract without an owner, thereby removing any functionality that is only available to the owner."
      },
      "requestRefund()": {
        "details": "Checks whether a person is subscribed and the grace period of 1 month isn't over. If all ok -> refund."
      },
      "subscribe()": {
        "details": "Receives a subscription fee and assigns a timestamp in the future."
      },
      "transferOwnership(address)": {
        "details": "Transfers ownership of the contract to a new account (`newOwner`). Can only be called by the current owner."
      },
      "withdraw()": {
        "details": "Allows only the Owner of the smart-contract to withdraw funds."
      }
    },
    "stateVariables": {
      "subscriptions": {
        "details": "Each address has a timestamp after which a subscription is inactive."
      }
    },
    "title": "Crypto Briefing User Authentication",
    "version": 1
  },
  "userdoc": {
    "kind": "user",
    "methods": {},
    "notice": "This is a final project for the ConsenSys Bootcamp",
    "version": 1
  }
}