{
  "contractName": "CBAuth",
  "abi": [
    {
      "inputs": [
        {
          "internalType": "address",
          "name": "usdcAddress",
          "type": "address"
        },
        {
          "internalType": "address",
          "name": "ethUsdOracle",
          "type": "address"
        },
        {
          "internalType": "uint256",
          "name": "initSubscriptionPrice",
          "type": "uint256"
        }
      ],
      "stateMutability": "nonpayable",
      "type": "constructor"
    },
    {
      "anonymous": false,
      "inputs": [
        {
          "indexed": true,
          "internalType": "address",
          "name": "previousOwner",
          "type": "address"
        },
        {
          "indexed": true,
          "internalType": "address",
          "name": "newOwner",
          "type": "address"
        }
      ],
      "name": "OwnershipTransferred",
      "type": "event"
    },
    {
      "anonymous": false,
      "inputs": [
        {
          "indexed": false,
          "internalType": "address",
          "name": "subscriber",
          "type": "address"
        }
      ],
      "name": "Subscribed",
      "type": "event"
    },
    {
      "inputs": [],
      "name": "owner",
      "outputs": [
        {
          "internalType": "address",
          "name": "",
          "type": "address"
        }
      ],
      "stateMutability": "view",
      "type": "function",
      "constant": true
    },
    {
      "inputs": [],
      "name": "renounceOwnership",
      "outputs": [],
      "stateMutability": "nonpayable",
      "type": "function"
    },
    {
      "inputs": [],
      "name": "subscriptionPrice",
      "outputs": [
        {
          "internalType": "uint256",
          "name": "",
          "type": "uint256"
        }
      ],
      "stateMutability": "view",
      "type": "function",
      "constant": true
    },
    {
      "inputs": [
        {
          "internalType": "address",
          "name": "",
          "type": "address"
        }
      ],
      "name": "subscriptions",
      "outputs": [
        {
          "internalType": "uint256",
          "name": "expiration",
          "type": "uint256"
        },
        {
          "internalType": "enum CBAuth.Currency",
          "name": "currency",
          "type": "uint8"
        },
        {
          "internalType": "uint256",
          "name": "balance",
          "type": "uint256"
        }
      ],
      "stateMutability": "view",
      "type": "function",
      "constant": true
    },
    {
      "inputs": [
        {
          "internalType": "address",
          "name": "newOwner",
          "type": "address"
        }
      ],
      "name": "transferOwnership",
      "outputs": [],
      "stateMutability": "nonpayable",
      "type": "function"
    },
    {
      "inputs": [],
      "name": "usdc",
      "outputs": [
        {
          "internalType": "contract IERC20",
          "name": "",
          "type": "address"
        }
      ],
      "stateMutability": "view",
      "type": "function",
      "constant": true
    },
    {
      "inputs": [],
      "name": "getETHUSDPrice",
      "outputs": [
        {
          "internalType": "int256",
          "name": "",
          "type": "int256"
        }
      ],
      "stateMutability": "view",
      "type": "function",
      "constant": true
    },
    {
      "inputs": [],
      "name": "subscribeETH",
      "outputs": [],
      "stateMutability": "payable",
      "type": "function",
      "payable": true
    },
    {
      "inputs": [],
      "name": "subscribeUSDC",
      "outputs": [],
      "stateMutability": "nonpayable",
      "type": "function"
    },
    {
      "inputs": [],
      "name": "isSubscribed",
      "outputs": [
        {
          "internalType": "bool",
          "name": "",
          "type": "bool"
        }
      ],
      "stateMutability": "view",
      "type": "function",
      "constant": true
    },
    {
      "inputs": [],
      "name": "requestRefund",
      "outputs": [],
      "stateMutability": "nonpayable",
      "type": "function"
    },
    {
      "inputs": [],
      "name": "withdraw",
      "outputs": [],
      "stateMutability": "nonpayable",
      "type": "function"
    }
  ],
  "bytecode": "0x60806040523480156200001157600080fd5b506040516200208f3803806200208f8339818101604052810190620000379190620001e3565b620000576200004b620000e960201b60201c565b620000f160201b60201c565b82600260006101000a81548173ffffffffffffffffffffffffffffffffffffffff021916908373ffffffffffffffffffffffffffffffffffffffff16021790555081600360006101000a81548173ffffffffffffffffffffffffffffffffffffffff021916908373ffffffffffffffffffffffffffffffffffffffff16021790555080600181905550505050620002ab565b600033905090565b60008060009054906101000a900473ffffffffffffffffffffffffffffffffffffffff169050816000806101000a81548173ffffffffffffffffffffffffffffffffffffffff021916908373ffffffffffffffffffffffffffffffffffffffff1602179055508173ffffffffffffffffffffffffffffffffffffffff168173ffffffffffffffffffffffffffffffffffffffff167f8be0079c531659141344cd1fd0a4f28419497f9722a3daafe3b4186f6b6457e060405160405180910390a35050565b600081519050620001c68162000277565b92915050565b600081519050620001dd8162000291565b92915050565b600080600060608486031215620001f957600080fd5b60006200020986828701620001b5565b93505060206200021c86828701620001b5565b92505060406200022f86828701620001cc565b9150509250925092565b600062000246826200024d565b9050919050565b600073ffffffffffffffffffffffffffffffffffffffff82169050919050565b6000819050919050565b620002828162000239565b81146200028e57600080fd5b50565b6200029c816200026d565b8114620002a857600080fd5b50565b611dd480620002bb6000396000f3fe6080604052600436106100a75760003560e01c8063bdc8e54c11610064578063bdc8e54c14610172578063bf4b19901461019d578063d5cef133146101c8578063e210e0ef146101df578063f046395a146101e9578063f2fde38b14610228576100a7565b80633ccfd60b146100ac5780633e413bee146100c3578063715018a6146100ee5780638a281554146101055780638da5cb5b14610130578063aebf31c31461015b575b600080fd5b3480156100b857600080fd5b506100c1610251565b005b3480156100cf57600080fd5b506100d86104e0565b6040516100e591906118b6565b60405180910390f35b3480156100fa57600080fd5b50610103610506565b005b34801561011157600080fd5b5061011a61058e565b604051610127919061189b565b60405180910390f35b34801561013c57600080fd5b50610145610637565b6040516101529190611820565b60405180910390f35b34801561016757600080fd5b50610170610660565b005b34801561017e57600080fd5b5061018761096a565b60405161019491906119ec565b60405180910390f35b3480156101a957600080fd5b506101b2610970565b6040516101bf91906118d1565b60405180910390f35b3480156101d457600080fd5b506101dd610a3d565b005b6101e7610f80565b005b3480156101f557600080fd5b50610210600480360381019061020b919061147f565b61121b565b60405161021f93929190611a07565b60405180910390f35b34801561023457600080fd5b5061024f600480360381019061024a919061147f565b611252565b005b61025961134a565b73ffffffffffffffffffffffffffffffffffffffff16610277610637565b73ffffffffffffffffffffffffffffffffffffffff16146102cd576040517f08c379a00000000000000000000000000000000000000000000000000000000081526004016102c49061196c565b60405180910390fd5b6000806102d8610637565b73ffffffffffffffffffffffffffffffffffffffff16476040516102fb9061180b565b60006040518083038185875af1925050503d8060008114610338576040519150601f19603f3d011682016040523d82523d6000602084013e61033d565b606091505b509150915081610382576040517f08c379a0000000000000000000000000000000000000000000000000000000008152600401610379906118ec565b60405180910390fd5b600260009054906101000a900473ffffffffffffffffffffffffffffffffffffffff1673ffffffffffffffffffffffffffffffffffffffff1663a9059cbb33600260009054906101000a900473ffffffffffffffffffffffffffffffffffffffff1673ffffffffffffffffffffffffffffffffffffffff166370a08231306040518263ffffffff1660e01b815260040161041c9190611820565b60206040518083038186803b15801561043457600080fd5b505afa158015610448573d6000803e3d6000fd5b505050506040513d601f19601f8201168201806040525081019061046c91906114d1565b6040518363ffffffff1660e01b8152600401610489929190611872565b602060405180830381600087803b1580156104a357600080fd5b505af11580156104b7573d6000803e3d6000fd5b505050506040513d601f19601f820116820180604052508101906104db91906114a8565b505050565b600260009054906101000a900473ffffffffffffffffffffffffffffffffffffffff1681565b61050e61134a565b73ffffffffffffffffffffffffffffffffffffffff1661052c610637565b73ffffffffffffffffffffffffffffffffffffffff1614610582576040517f08c379a00000000000000000000000000000000000000000000000000000000081526004016105799061196c565b60405180910390fd5b61058c6000611352565b565b600080600560003373ffffffffffffffffffffffffffffffffffffffff1673ffffffffffffffffffffffffffffffffffffffff168152602001908152602001600020600001541480610621575042600560003373ffffffffffffffffffffffffffffffffffffffff1673ffffffffffffffffffffffffffffffffffffffff16815260200190815260200160002060000154105b1561062f5760009050610634565b600190505b90565b60008060009054906101000a900473ffffffffffffffffffffffffffffffffffffffff16905090565b6000600560003373ffffffffffffffffffffffffffffffffffffffff1673ffffffffffffffffffffffffffffffffffffffff1681526020019081526020016000206000015414806106f2575042600560003373ffffffffffffffffffffffffffffffffffffffff1673ffffffffffffffffffffffffffffffffffffffff16815260200190815260200160002060000154105b610731576040517f08c379a00000000000000000000000000000000000000000000000000000000081526004016107289061192c565b60405180910390fd5b600260009054906101000a900473ffffffffffffffffffffffffffffffffffffffff1673ffffffffffffffffffffffffffffffffffffffff166323b872dd3330620f42406001546107829190611b4b565b6040518463ffffffff1660e01b81526004016107a09392919061183b565b602060405180830381600087803b1580156107ba57600080fd5b505af11580156107ce573d6000803e3d6000fd5b505050506040513d601f19601f820116820180604052508101906107f291906114a8565b506301e13380426108039190611a5a565b600560003373ffffffffffffffffffffffffffffffffffffffff1673ffffffffffffffffffffffffffffffffffffffff168152602001908152602001600020600001819055506001600560003373ffffffffffffffffffffffffffffffffffffffff1673ffffffffffffffffffffffffffffffffffffffff16815260200190815260200160002060010160006101000a81548160ff021916908360018111156108d5577f4e487b7100000000000000000000000000000000000000000000000000000000600052602160045260246000fd5b0217905550620f42406001546108eb9190611b4b565b600560003373ffffffffffffffffffffffffffffffffffffffff1673ffffffffffffffffffffffffffffffffffffffff168152602001908152602001600020600201819055507fa88fac53823b534c72d6958345adbe6801e072750d83b490d52ebbac51473a63336040516109609190611820565b60405180910390a1565b60015481565b600080600080600080600360009054906101000a900473ffffffffffffffffffffffffffffffffffffffff1673ffffffffffffffffffffffffffffffffffffffff1663feaf968c6040518163ffffffff1660e01b815260040160a06040518083038186803b1580156109e157600080fd5b505afa1580156109f5573d6000803e3d6000fd5b505050506040513d601f19601f82011682018060405250810190610a1991906114fa565b945094509450945094506305f5e10084610a339190611ab0565b9550505050505090565b6000600560003373ffffffffffffffffffffffffffffffffffffffff1673ffffffffffffffffffffffffffffffffffffffff16815260200190815260200160002060000154141580610ad0575042600560003373ffffffffffffffffffffffffffffffffffffffff1673ffffffffffffffffffffffffffffffffffffffff16815260200190815260200160002060000154115b610b0f576040517f08c379a0000000000000000000000000000000000000000000000000000000008152600401610b06906119ac565b60405180910390fd5b4262278d006301e13380600560003373ffffffffffffffffffffffffffffffffffffffff1673ffffffffffffffffffffffffffffffffffffffff16815260200190815260200160002060000154610b669190611ba5565b610b709190611a5a565b11610bb0576040517f08c379a0000000000000000000000000000000000000000000000000000000008152600401610ba79061198c565b60405180910390fd5b6000600560003373ffffffffffffffffffffffffffffffffffffffff1673ffffffffffffffffffffffffffffffffffffffff1681526020019081526020016000206002015490506000600560003373ffffffffffffffffffffffffffffffffffffffff1673ffffffffffffffffffffffffffffffffffffffff168152602001908152602001600020600201819055506000600560003373ffffffffffffffffffffffffffffffffffffffff1673ffffffffffffffffffffffffffffffffffffffff1681526020019081526020016000206000018190555060006001811115610cc1577f4e487b7100000000000000000000000000000000000000000000000000000000600052602160045260246000fd5b600560003373ffffffffffffffffffffffffffffffffffffffff1673ffffffffffffffffffffffffffffffffffffffff16815260200190815260200160002060010160009054906101000a900460ff166001811115610d49577f4e487b7100000000000000000000000000000000000000000000000000000000600052602160045260246000fd5b1415610e04576000803373ffffffffffffffffffffffffffffffffffffffff1683604051610d769061180b565b60006040518083038185875af1925050503d8060008114610db3576040519150601f19603f3d011682016040523d82523d6000602084013e610db8565b606091505b509150915081610dfd576040517f08c379a0000000000000000000000000000000000000000000000000000000008152600401610df49061194c565b60405180910390fd5b5050610f7d565b600180811115610e3d577f4e487b7100000000000000000000000000000000000000000000000000000000600052602160045260246000fd5b600560003373ffffffffffffffffffffffffffffffffffffffff1673ffffffffffffffffffffffffffffffffffffffff16815260200190815260200160002060010160009054906101000a900460ff166001811115610ec5577f4e487b7100000000000000000000000000000000000000000000000000000000600052602160045260246000fd5b1415610f7c57600260009054906101000a900473ffffffffffffffffffffffffffffffffffffffff1673ffffffffffffffffffffffffffffffffffffffff1663a9059cbb33836040518363ffffffff1660e01b8152600401610f28929190611872565b602060405180830381600087803b158015610f4257600080fd5b505af1158015610f56573d6000803e3d6000fd5b505050506040513d601f19601f82011682018060405250810190610f7a91906114a8565b505b5b50565b6000600560003373ffffffffffffffffffffffffffffffffffffffff1673ffffffffffffffffffffffffffffffffffffffff168152602001908152602001600020600001541480611012575042600560003373ffffffffffffffffffffffffffffffffffffffff1673ffffffffffffffffffffffffffffffffffffffff16815260200190815260200160002060000154105b611051576040517f08c379a00000000000000000000000000000000000000000000000000000000081526004016110489061192c565b60405180910390fd5b600061105b610970565b905060008160015461106d9190611b1a565b9050803410156110b2576040517f08c379a00000000000000000000000000000000000000000000000000000000081526004016110a9906119cc565b60405180910390fd5b6301e13380426110c29190611a5a565b600560003373ffffffffffffffffffffffffffffffffffffffff1673ffffffffffffffffffffffffffffffffffffffff168152602001908152602001600020600001819055506000600560003373ffffffffffffffffffffffffffffffffffffffff1673ffffffffffffffffffffffffffffffffffffffff16815260200190815260200160002060010160006101000a81548160ff02191690836001811115611194577f4e487b7100000000000000000000000000000000000000000000000000000000600052602160045260246000fd5b021790555034600560003373ffffffffffffffffffffffffffffffffffffffff1673ffffffffffffffffffffffffffffffffffffffff168152602001908152602001600020600201819055507fa88fac53823b534c72d6958345adbe6801e072750d83b490d52ebbac51473a633360405161120f9190611820565b60405180910390a15050565b60056020528060005260406000206000915090508060000154908060010160009054906101000a900460ff16908060020154905083565b61125a61134a565b73ffffffffffffffffffffffffffffffffffffffff16611278610637565b73ffffffffffffffffffffffffffffffffffffffff16146112ce576040517f08c379a00000000000000000000000000000000000000000000000000000000081526004016112c59061196c565b60405180910390fd5b600073ffffffffffffffffffffffffffffffffffffffff168173ffffffffffffffffffffffffffffffffffffffff16141561133e576040517f08c379a00000000000000000000000000000000000000000000000000000000081526004016113359061190c565b60405180910390fd5b61134781611352565b50565b600033905090565b60008060009054906101000a900473ffffffffffffffffffffffffffffffffffffffff169050816000806101000a81548173ffffffffffffffffffffffffffffffffffffffff021916908373ffffffffffffffffffffffffffffffffffffffff1602179055508173ffffffffffffffffffffffffffffffffffffffff168173ffffffffffffffffffffffffffffffffffffffff167f8be0079c531659141344cd1fd0a4f28419497f9722a3daafe3b4186f6b6457e060405160405180910390a35050565b60008135905061142581611d2b565b92915050565b60008151905061143a81611d42565b92915050565b60008151905061144f81611d59565b92915050565b60008151905061146481611d70565b92915050565b60008151905061147981611d87565b92915050565b60006020828403121561149157600080fd5b600061149f84828501611416565b91505092915050565b6000602082840312156114ba57600080fd5b60006114c88482850161142b565b91505092915050565b6000602082840312156114e357600080fd5b60006114f184828501611455565b91505092915050565b600080600080600060a0868803121561151257600080fd5b60006115208882890161146a565b955050602061153188828901611440565b945050604061154288828901611455565b935050606061155388828901611455565b92505060806115648882890161146a565b9150509295509295909350565b61157a81611bd9565b82525050565b61158981611beb565b82525050565b61159881611c54565b82525050565b6115a781611c78565b82525050565b6115b681611c0a565b82525050565b60006115c9601283611a49565b91507f4661696c656420746f20776974686472617700000000000000000000000000006000830152602082019050919050565b6000611609602683611a49565b91507f4f776e61626c653a206e6577206f776e657220697320746865207a65726f206160008301527f64647265737300000000000000000000000000000000000000000000000000006020830152604082019050919050565b600061166f601383611a49565b91507f416c726561647920737562736372696265642e000000000000000000000000006000830152602082019050919050565b60006116af601083611a49565b91507f4661696c656420746f20526566756e64000000000000000000000000000000006000830152602082019050919050565b60006116ef602083611a49565b91507f4f776e61626c653a2063616c6c6572206973206e6f7420746865206f776e65726000830152602082019050919050565b600061172f601383611a49565b91507f477261636520506572696f6420456e6465642e000000000000000000000000006000830152602082019050919050565b600061176f600f83611a49565b91507f4e6f7420737562736372696265642e00000000000000000000000000000000006000830152602082019050919050565b60006117af601a83611a49565b91507f596f7520646f6e2774206861766520656e6f756768204554482e0000000000006000830152602082019050919050565b60006117ef600083611a3e565b9150600082019050919050565b61180581611c34565b82525050565b6000611816826117e2565b9150819050919050565b60006020820190506118356000830184611571565b92915050565b60006060820190506118506000830186611571565b61185d6020830185611571565b61186a60408301846117fc565b949350505050565b60006040820190506118876000830185611571565b61189460208301846117fc565b9392505050565b60006020820190506118b06000830184611580565b92915050565b60006020820190506118cb600083018461158f565b92915050565b60006020820190506118e660008301846115ad565b92915050565b60006020820190508181036000830152611905816115bc565b9050919050565b60006020820190508181036000830152611925816115fc565b9050919050565b6000602082019050818103600083015261194581611662565b9050919050565b60006020820190508181036000830152611965816116a2565b9050919050565b60006020820190508181036000830152611985816116e2565b9050919050565b600060208201905081810360008301526119a581611722565b9050919050565b600060208201905081810360008301526119c581611762565b9050919050565b600060208201905081810360008301526119e5816117a2565b9050919050565b6000602082019050611a0160008301846117fc565b92915050565b6000606082019050611a1c60008301866117fc565b611a29602083018561159e565b611a3660408301846117fc565b949350505050565b600081905092915050565b600082825260208201905092915050565b6000611a6582611c34565b9150611a7083611c34565b9250827fffffffffffffffffffffffffffffffffffffffffffffffffffffffffffffffff03821115611aa557611aa4611c8a565b5b828201905092915050565b6000611abb82611c0a565b9150611ac683611c0a565b925082611ad657611ad5611cb9565b5b600160000383147f800000000000000000000000000000000000000000000000000000000000000083141615611b0f57611b0e611c8a565b5b828205905092915050565b6000611b2582611c34565b9150611b3083611c34565b925082611b4057611b3f611cb9565b5b828204905092915050565b6000611b5682611c34565b9150611b6183611c34565b9250817fffffffffffffffffffffffffffffffffffffffffffffffffffffffffffffffff0483118215151615611b9a57611b99611c8a565b5b828202905092915050565b6000611bb082611c34565b9150611bbb83611c34565b925082821015611bce57611bcd611c8a565b5b828203905092915050565b6000611be482611c14565b9050919050565b60008115159050919050565b6000819050611c0582611d17565b919050565b6000819050919050565b600073ffffffffffffffffffffffffffffffffffffffff82169050919050565b6000819050919050565b600069ffffffffffffffffffff82169050919050565b6000611c5f82611c66565b9050919050565b6000611c7182611c14565b9050919050565b6000611c8382611bf7565b9050919050565b7f4e487b7100000000000000000000000000000000000000000000000000000000600052601160045260246000fd5b7f4e487b7100000000000000000000000000000000000000000000000000000000600052601260045260246000fd5b7f4e487b7100000000000000000000000000000000000000000000000000000000600052602160045260246000fd5b60028110611d2857611d27611ce8565b5b50565b611d3481611bd9565b8114611d3f57600080fd5b50565b611d4b81611beb565b8114611d5657600080fd5b50565b611d6281611c0a565b8114611d6d57600080fd5b50565b611d7981611c34565b8114611d8457600080fd5b50565b611d9081611c3e565b8114611d9b57600080fd5b5056fea2646970667358221220fad510b1eb9311364216c6521d41864ef96e4f11bba608dd1595ce2f8b6d0d1464736f6c63430008000033",
  "immutableReferences": {},
  "source": "// SPDX-License-Identifier: GPL-3.0\n\npragma solidity 0.8.0;\n\nimport \"@openzeppelin/contracts/token/ERC20/IERC20.sol\";\nimport \"@openzeppelin/contracts/access/Ownable.sol\";\nimport \"@chainlink/contracts/src/v0.8/interfaces/AggregatorV3Interface.sol\";\n\n/// @title Crypto Briefing User Authentication\n/// @author Anton Tarasov\n/// @notice This is a final project for the ConsenSys Bootcamp\ncontract CBAuth is Ownable {\n\n    uint256 public subscriptionPrice;\n\n    IERC20 public usdc;\n    AggregatorV3Interface internal ETHUSDPriceFeed;\n    AggregatorV3Interface internal BTCUSDPriceFeed;\n\n    enum Currency {\n        ETH,\n        USDC\n    }\n\n    Currency currency;\n    Currency constant defaultChoice = Currency.ETH;\n\n    struct Subscription {\n        uint256 expiration;\n        Currency currency;\n        uint256 balance;\n    }\n\n    event Subscribed(address subscriber);\n\n    /// @dev Each address has a timestamp after which a subscription is inactive.\n    mapping(address=>Subscription) public subscriptions;\n\n    constructor(address usdcAddress, address ethUsdOracle, uint256 initSubscriptionPrice) {\n        usdc = IERC20(usdcAddress);\n        ETHUSDPriceFeed = AggregatorV3Interface(ethUsdOracle);\n        subscriptionPrice = initSubscriptionPrice; \n    }\n\n    modifier notSubscribed {\n        require(subscriptions[msg.sender].expiration == 0 || subscriptions[msg.sender].expiration < block.timestamp, \"Already subscribed.\");\n        _;\n    }\n\n    modifier subscribed {\n        require(subscriptions[msg.sender].expiration != 0 || subscriptions[msg.sender].expiration > block.timestamp, \"Not subscribed.\");\n        _;\n    }\n\n    modifier refundActive {\n        require(subscriptions[msg.sender].expiration - 31536000 + 2592000 > block.timestamp, \"Grace Period Ended.\");\n        _;\n    }\n    \n    ///@dev queries USDC price via Chainlink oracle.\n    function getETHUSDPrice() public view returns (int256) {\n        (\n            uint80 roundID,\n            int256 answer,\n            uint256 startedAt,\n            uint256 updatedAt,\n            uint80 answeredInRound\n        ) = ETHUSDPriceFeed.latestRoundData();\n        return answer / 1e8;\n    }\n\n    ///@dev Receives a subscription fee in ETH, stores data about subscription, emits an event that a user is subscribed.\n    function subscribeETH() external payable notSubscribed {\n        uint256 ethPrice = uint256(getETHUSDPrice());\n        uint256 ethForSubscription = subscriptionPrice / ethPrice;\n        require(msg.value >= ethForSubscription, \"You don't have enough ETH.\");\n\n        subscriptions[msg.sender].expiration = block.timestamp + 31536000;\n        subscriptions[msg.sender].currency = Currency.ETH;\n        subscriptions[msg.sender].balance = msg.value;\n\n        emit Subscribed(msg.sender);\n    }\n\n    function subscribeUSDC() external notSubscribed {\n        usdc.transferFrom(msg.sender, address(this), subscriptionPrice * 1000000);\n        subscriptions[msg.sender].expiration = block.timestamp + 31536000;\n        subscriptions[msg.sender].currency = Currency.USDC;\n        subscriptions[msg.sender].balance = subscriptionPrice * 1000000;\n\n        emit Subscribed(msg.sender);\n    }\n\n    /// @dev Checks whether a tx sender is subscribed.\n    function isSubscribed() public view returns(bool) {\n        if (subscriptions[msg.sender].expiration == 0 || subscriptions[msg.sender].expiration < block.timestamp) {\n            return(false);\n        } else {\n            return (true);\n        }\n    }\n\n    /// @dev Checks whether a person is subscribed and the grace period of 1 month isn't over. If all ok -> refund.\n    function requestRefund() external subscribed refundActive {\n        uint256 refundAmount = subscriptions[msg.sender].balance;\n        subscriptions[msg.sender].balance = 0;\n        subscriptions[msg.sender].expiration = 0;\n        /// @dev Update state variable before making an external call to prevent re-entrancy.\n        if (subscriptions[msg.sender].currency == Currency.ETH) {\n            (bool sent, bytes memory data) = msg.sender.call{value: refundAmount}(\"\");\n            require(sent, \"Failed to Refund\");\n        } else if (subscriptions[msg.sender].currency == Currency.USDC) {\n            usdc.transfer(msg.sender, refundAmount);\n        }\n    }\n\n    /// @dev Allows only the Owner of the smart-contract to withdraw funds.\n    function withdraw() external onlyOwner {\n        (bool sent, bytes memory data) = owner().call{value: address(this).balance}(\"\");\n        require(sent, \"Failed to withdraw\");\n        usdc.transfer(msg.sender, usdc.balanceOf(address(this)));\n    }\n}",
  "sourcePath": "/Users/toha-kartoha/Desktop/latest_code_desktop/blockchain-developer-bootcamp-final-project/contracts/CBAuth.sol",
  "compiler": {
    "name": "solc",
    "version": "0.8.0+commit.c7dfd78e.Emscripten.clang"
  },
  "schemaVersion": "3.4.3",
  "updatedAt": "2021-11-28T02:21:28.912Z",
  "networkType": "ethereum",
  "devdoc": {
    "author": "Anton Tarasov",
    "kind": "dev",
    "methods": {
      "getETHUSDPrice()": {
        "details": "queries USDC price via Chainlink oracle."
      },
      "isSubscribed()": {
        "details": "Checks whether a tx sender is subscribed."
      },
      "owner()": {
        "details": "Returns the address of the current owner."
      },
      "renounceOwnership()": {
        "details": "Leaves the contract without owner. It will not be possible to call `onlyOwner` functions anymore. Can only be called by the current owner. NOTE: Renouncing ownership will leave the contract without an owner, thereby removing any functionality that is only available to the owner."
      },
      "requestRefund()": {
        "details": "Checks whether a person is subscribed and the grace period of 1 month isn't over. If all ok -> refund."
      },
      "subscribeETH()": {
        "details": "Receives a subscription fee in ETH, stores data about subscription, emits an event that a user is subscribed."
      },
      "transferOwnership(address)": {
        "details": "Transfers ownership of the contract to a new account (`newOwner`). Can only be called by the current owner."
      },
      "withdraw()": {
        "details": "Allows only the Owner of the smart-contract to withdraw funds."
      }
    },
    "stateVariables": {
      "subscriptions": {
        "details": "Each address has a timestamp after which a subscription is inactive."
      }
    },
    "title": "Crypto Briefing User Authentication",
    "version": 1
  },
  "userdoc": {
    "kind": "user",
    "methods": {},
    "notice": "This is a final project for the ConsenSys Bootcamp",
    "version": 1
  }
}