{
  "contractName": "CBAuth",
  "abi": [
    {
      "inputs": [],
      "payable": false,
      "stateMutability": "nonpayable",
      "type": "constructor"
    },
    {
      "anonymous": false,
      "inputs": [
        {
          "indexed": false,
          "internalType": "address",
          "name": "",
          "type": "address"
        }
      ],
      "name": "SubscribedForYearly",
      "type": "event"
    },
    {
      "constant": true,
      "inputs": [],
      "name": "lifetimePrice",
      "outputs": [
        {
          "internalType": "uint256",
          "name": "",
          "type": "uint256"
        }
      ],
      "payable": false,
      "stateMutability": "view",
      "type": "function"
    },
    {
      "constant": true,
      "inputs": [
        {
          "internalType": "address",
          "name": "",
          "type": "address"
        }
      ],
      "name": "owners",
      "outputs": [
        {
          "internalType": "bool",
          "name": "",
          "type": "bool"
        }
      ],
      "payable": false,
      "stateMutability": "view",
      "type": "function"
    },
    {
      "constant": true,
      "inputs": [
        {
          "internalType": "address",
          "name": "",
          "type": "address"
        }
      ],
      "name": "subscriptions",
      "outputs": [
        {
          "internalType": "uint256",
          "name": "",
          "type": "uint256"
        }
      ],
      "payable": false,
      "stateMutability": "view",
      "type": "function"
    },
    {
      "constant": true,
      "inputs": [],
      "name": "yearlyPrice",
      "outputs": [
        {
          "internalType": "uint256",
          "name": "",
          "type": "uint256"
        }
      ],
      "payable": false,
      "stateMutability": "view",
      "type": "function"
    },
    {
      "constant": true,
      "inputs": [
        {
          "internalType": "address",
          "name": "subscriber",
          "type": "address"
        }
      ],
      "name": "subscribed",
      "outputs": [
        {
          "internalType": "bool",
          "name": "",
          "type": "bool"
        }
      ],
      "payable": false,
      "stateMutability": "view",
      "type": "function"
    },
    {
      "constant": false,
      "inputs": [
        {
          "internalType": "address",
          "name": "subscriber",
          "type": "address"
        }
      ],
      "name": "buyYearly",
      "outputs": [],
      "payable": true,
      "stateMutability": "payable",
      "type": "function"
    },
    {
      "constant": false,
      "inputs": [],
      "name": "buyLifetime",
      "outputs": [],
      "payable": true,
      "stateMutability": "payable",
      "type": "function"
    },
    {
      "constant": false,
      "inputs": [
        {
          "internalType": "uint256",
          "name": "_price",
          "type": "uint256"
        }
      ],
      "name": "updateYearlyPrice",
      "outputs": [],
      "payable": false,
      "stateMutability": "nonpayable",
      "type": "function"
    },
    {
      "constant": false,
      "inputs": [
        {
          "internalType": "uint256",
          "name": "_price",
          "type": "uint256"
        }
      ],
      "name": "updateLifetimePrice",
      "outputs": [],
      "payable": false,
      "stateMutability": "nonpayable",
      "type": "function"
    },
    {
      "constant": false,
      "inputs": [],
      "name": "Refund",
      "outputs": [],
      "payable": false,
      "stateMutability": "nonpayable",
      "type": "function"
    }
  ],
  "bytecode": "0x608060405234801561001057600080fd5b506105c8806100206000396000f3fe6080604052600436106100915760003560e01c8063b3ac288411610059578063b3ac288414610186578063d18d69af146101c1578063f046395a1461022a578063f2840ed81461028f578063ff82286b146102d357610091565b8063022914a7146100965780630c6d7b8e146100ff5780635d2686291461012a578063708e9cf814610141578063745815ec1461014b575b600080fd5b3480156100a257600080fd5b506100e5600480360360208110156100b957600080fd5b81019080803573ffffffffffffffffffffffffffffffffffffffff1690602001909291905050506102fe565b604051808215151515815260200191505060405180910390f35b34801561010b57600080fd5b5061011461031e565b6040518082815260200191505060405180910390f35b34801561013657600080fd5b5061013f610324565b005b610149610326565b005b34801561015757600080fd5b506101846004803603602081101561016e57600080fd5b8101908080359060200190929190505050610328565b005b34801561019257600080fd5b506101bf600480360360208110156101a957600080fd5b8101908080359060200190929190505050610332565b005b3480156101cd57600080fd5b50610210600480360360208110156101e457600080fd5b81019080803573ffffffffffffffffffffffffffffffffffffffff16906020019092919050505061033c565b604051808215151515815260200191505060405180910390f35b34801561023657600080fd5b506102796004803603602081101561024d57600080fd5b81019080803573ffffffffffffffffffffffffffffffffffffffff1690602001909291905050506103d8565b6040518082815260200191505060405180910390f35b6102d1600480360360208110156102a557600080fd5b81019080803573ffffffffffffffffffffffffffffffffffffffff1690602001909291905050506103f0565b005b3480156102df57600080fd5b506102e861058d565b6040518082815260200191505060405180910390f35b60026020528060005260406000206000915054906101000a900460ff1681565b60015481565b565b565b8060018190555050565b8060008190555050565b600080600460008473ffffffffffffffffffffffffffffffffffffffff1673ffffffffffffffffffffffffffffffffffffffff16815260200190815260200160002054141561038e57600090506103d3565b42600460008473ffffffffffffffffffffffffffffffffffffffff1673ffffffffffffffffffffffffffffffffffffffff168152602001908152602001600020541090505b919050565b60046020528060005260406000206000915090505481565b6000543414610467576040517f08c379a00000000000000000000000000000000000000000000000000000000081526004018080602001828103825260178152602001807f57726f6e6720616d6f756e74207370656369666965642e00000000000000000081525060200191505060405180910390fd5b6104708161033c565b156104e3576040517f08c379a000000000000000000000000000000000000000000000000000000000815260040180806020018281038252601b8152602001807f596f752061726520616c726561647920737562736372696265642e000000000081525060200191505060405180910390fd5b42600460008373ffffffffffffffffffffffffffffffffffffffff1673ffffffffffffffffffffffffffffffffffffffff168152602001908152602001600020819055507f9cb98f3c66abe7ef608bbed4b439bf8e829ba0781bd3694125b4c57c23904ef081604051808273ffffffffffffffffffffffffffffffffffffffff1673ffffffffffffffffffffffffffffffffffffffff16815260200191505060405180910390a150565b6000548156fea265627a7a7231582001ec3e54158437b253bed8a5990a2bfc76178d51a1c775ccaf63bd03112194d264736f6c63430005100032",
  "source": "//SPDX-License-Identifier: MIT\n\npragma solidity ^0.5.0;\ncontract CBAuth {\n\n    uint public yearlyPrice;\n    uint public lifetimePrice;\n\n    mapping (address => bool) public owners;\n    uint requiredSignatures;\n\n    mapping (address => uint) public subscriptions;\n\n    constructor() public {\n\n    }\n\n    modifier onlyOwners() {\n        _;\n    }\n    \n    event SubscribedForYearly(address);\n    \n    function subscribed(address subscriber) public view returns (bool){\n        if (subscriptions[subscriber] == 0) {\n            return false;\n        }\n        return subscriptions[subscriber] < block.timestamp;\n    }\n\n    function buyYearly(address subscriber) public payable {\n        require(msg.value == yearlyPrice, 'Wrong amount specified.');\n        require(!subscribed(subscriber), 'You are already subscribed.');\n        subscriptions[subscriber] = block.timestamp;\n        emit SubscribedForYearly(subscriber);\n    }\n\n    function buyLifetime() public payable {\n\n    }\n\n    function updateYearlyPrice(uint _price) public onlyOwners {\n        yearlyPrice = _price;\n    }\n\n    function updateLifetimePrice(uint _price) public onlyOwners{\n        lifetimePrice = _price;\n    }\n\n    function Refund() public {\n        \n    }\n}",
  "sourcePath": "/Users/code/Desktop/blockchain-developer-bootcamp-final-project/contracts/CBAuth.sol",
  "compiler": {
    "name": "solc",
    "version": "0.5.16+commit.9c3226ce.Emscripten.clang"
  },
  "schemaVersion": "3.4.3",
  "updatedAt": "2021-10-23T14:25:07.036Z",
  "networkType": "ethereum",
  "devdoc": {
    "methods": {}
  },
  "userdoc": {
    "methods": {}
  }
}