{
  "contractName": "CBAuth",
  "abi": [
    {
      "anonymous": false,
      "inputs": [
        {
          "indexed": true,
          "internalType": "address",
          "name": "previousOwner",
          "type": "address"
        },
        {
          "indexed": true,
          "internalType": "address",
          "name": "newOwner",
          "type": "address"
        }
      ],
      "name": "OwnershipTransferred",
      "type": "event"
    },
    {
      "inputs": [],
      "name": "owner",
      "outputs": [
        {
          "internalType": "address",
          "name": "",
          "type": "address"
        }
      ],
      "stateMutability": "view",
      "type": "function",
      "constant": true
    },
    {
      "inputs": [],
      "name": "price",
      "outputs": [
        {
          "internalType": "uint256",
          "name": "",
          "type": "uint256"
        }
      ],
      "stateMutability": "view",
      "type": "function",
      "constant": true
    },
    {
      "inputs": [],
      "name": "renounceOwnership",
      "outputs": [],
      "stateMutability": "nonpayable",
      "type": "function"
    },
    {
      "inputs": [
        {
          "internalType": "address",
          "name": "newOwner",
          "type": "address"
        }
      ],
      "name": "transferOwnership",
      "outputs": [],
      "stateMutability": "nonpayable",
      "type": "function"
    }
  ],
  "bytecode": "0x608060405234801561001057600080fd5b5061002d61002261003260201b60201c565b61003a60201b60201c565b6100fe565b600033905090565b60008060009054906101000a900473ffffffffffffffffffffffffffffffffffffffff169050816000806101000a81548173ffffffffffffffffffffffffffffffffffffffff021916908373ffffffffffffffffffffffffffffffffffffffff1602179055508173ffffffffffffffffffffffffffffffffffffffff168173ffffffffffffffffffffffffffffffffffffffff167f8be0079c531659141344cd1fd0a4f28419497f9722a3daafe3b4186f6b6457e060405160405180910390a35050565b6105618061010d6000396000f3fe608060405234801561001057600080fd5b506004361061004c5760003560e01c8063715018a6146100515780638da5cb5b1461005b578063a035b1fe14610079578063f2fde38b14610097575b600080fd5b6100596100b3565b005b61006361013b565b604051610070919061036f565b60405180910390f35b610081610164565b60405161008e91906103a3565b60405180910390f35b6100b160048036038101906100ac91906103ef565b61016a565b005b6100bb610262565b73ffffffffffffffffffffffffffffffffffffffff166100d961013b565b73ffffffffffffffffffffffffffffffffffffffff161461012f576040517f08c379a000000000000000000000000000000000000000000000000000000000815260040161012690610479565b60405180910390fd5b610139600061026a565b565b60008060009054906101000a900473ffffffffffffffffffffffffffffffffffffffff16905090565b60015481565b610172610262565b73ffffffffffffffffffffffffffffffffffffffff1661019061013b565b73ffffffffffffffffffffffffffffffffffffffff16146101e6576040517f08c379a00000000000000000000000000000000000000000000000000000000081526004016101dd90610479565b60405180910390fd5b600073ffffffffffffffffffffffffffffffffffffffff168173ffffffffffffffffffffffffffffffffffffffff161415610256576040517f08c379a000000000000000000000000000000000000000000000000000000000815260040161024d9061050b565b60405180910390fd5b61025f8161026a565b50565b600033905090565b60008060009054906101000a900473ffffffffffffffffffffffffffffffffffffffff169050816000806101000a81548173ffffffffffffffffffffffffffffffffffffffff021916908373ffffffffffffffffffffffffffffffffffffffff1602179055508173ffffffffffffffffffffffffffffffffffffffff168173ffffffffffffffffffffffffffffffffffffffff167f8be0079c531659141344cd1fd0a4f28419497f9722a3daafe3b4186f6b6457e060405160405180910390a35050565b600073ffffffffffffffffffffffffffffffffffffffff82169050919050565b60006103598261032e565b9050919050565b6103698161034e565b82525050565b60006020820190506103846000830184610360565b92915050565b6000819050919050565b61039d8161038a565b82525050565b60006020820190506103b86000830184610394565b92915050565b600080fd5b6103cc8161034e565b81146103d757600080fd5b50565b6000813590506103e9816103c3565b92915050565b600060208284031215610405576104046103be565b5b6000610413848285016103da565b91505092915050565b600082825260208201905092915050565b7f4f776e61626c653a2063616c6c6572206973206e6f7420746865206f776e6572600082015250565b600061046360208361041c565b915061046e8261042d565b602082019050919050565b6000602082019050818103600083015261049281610456565b9050919050565b7f4f776e61626c653a206e6577206f776e657220697320746865207a65726f206160008201527f6464726573730000000000000000000000000000000000000000000000000000602082015250565b60006104f560268361041c565b915061050082610499565b604082019050919050565b60006020820190508181036000830152610524816104e8565b905091905056fea26469706673582212201fad08b6955077544c533ae30999483befbd6005a7360c93a45b8035c780f9b264736f6c634300080a0033",
  "immutableReferences": {},
  "source": "// SPDX-License-Identifier: GPL-3.0\n\npragma solidity ^0.8.0;\n\nimport \"@openzeppelin/contracts/access/Ownable.sol\";\n/// @title Crypto Briefing User Authentication\n/// @author Anton Tarasov\n/// @notice This is a final project for the ConsenSys Bootcamp\ncontract CBAuth is Ownable {\n    uint256 public price;\n}",
  "sourcePath": "/Users/toha-kartoha/Desktop/latest_code_desktop/blockchain-developer-bootcamp-final-project/contracts/CBAuth.sol",
  "compiler": {
    "name": "solc",
    "version": "0.8.10+commit.fc410830.Emscripten.clang"
  },
  "schemaVersion": "3.4.3",
  "updatedAt": "2021-11-16T21:08:16.775Z",
  "networkType": "ethereum",
  "devdoc": {
    "author": "Anton Tarasov",
    "kind": "dev",
    "methods": {
      "owner()": {
        "details": "Returns the address of the current owner."
      },
      "renounceOwnership()": {
        "details": "Leaves the contract without owner. It will not be possible to call `onlyOwner` functions anymore. Can only be called by the current owner. NOTE: Renouncing ownership will leave the contract without an owner, thereby removing any functionality that is only available to the owner."
      },
      "transferOwnership(address)": {
        "details": "Transfers ownership of the contract to a new account (`newOwner`). Can only be called by the current owner."
      }
    },
    "title": "Crypto Briefing User Authentication",
    "version": 1
  },
  "userdoc": {
    "kind": "user",
    "methods": {},
    "notice": "This is a final project for the ConsenSys Bootcamp",
    "version": 1
  }
}